{
  "contractName": "MindPin",
  "abi": [
    {
      "anonymous": false,
      "inputs": [
        {
          "indexed": false,
          "internalType": "address",
          "name": "owner",
          "type": "address"
        },
        {
          "indexed": false,
          "internalType": "uint256",
          "name": "id",
          "type": "uint256"
        },
        {
          "indexed": false,
          "internalType": "string",
          "name": "content",
          "type": "string"
        }
      ],
      "name": "MindSet",
      "type": "event"
    },
    {
      "anonymous": false,
      "inputs": [
        {
          "indexed": true,
          "internalType": "address",
          "name": "previousOwner",
          "type": "address"
        },
        {
          "indexed": true,
          "internalType": "address",
          "name": "newOwner",
          "type": "address"
        }
      ],
      "name": "OwnershipTransferred",
      "type": "event"
    },
    {
      "inputs": [
        {
          "internalType": "uint256",
          "name": "",
          "type": "uint256"
        }
      ],
      "name": "NumStates",
      "outputs": [
        {
          "internalType": "uint256",
          "name": "id",
          "type": "uint256"
        },
        {
          "internalType": "address",
          "name": "owner",
          "type": "address"
        },
        {
          "internalType": "string",
          "name": "content",
          "type": "string"
        }
      ],
      "stateMutability": "view",
      "type": "function"
    },
    {
      "inputs": [
        {
          "internalType": "address",
          "name": "",
          "type": "address"
        },
        {
          "internalType": "uint256",
          "name": "",
          "type": "uint256"
        }
      ],
      "name": "bookStates",
      "outputs": [
        {
          "internalType": "uint256",
          "name": "id",
          "type": "uint256"
        },
        {
          "internalType": "address",
          "name": "owner",
          "type": "address"
        },
        {
          "internalType": "string",
          "name": "content",
          "type": "string"
        }
      ],
      "stateMutability": "view",
      "type": "function"
    },
    {
      "inputs": [],
      "name": "owner",
      "outputs": [
        {
          "internalType": "address",
          "name": "",
          "type": "address"
        }
      ],
      "stateMutability": "view",
      "type": "function"
    },
    {
      "inputs": [],
      "name": "renounceOwnership",
      "outputs": [],
      "stateMutability": "nonpayable",
      "type": "function"
    },
    {
      "inputs": [
        {
          "internalType": "address",
          "name": "newOwner",
          "type": "address"
        }
      ],
      "name": "transferOwnership",
      "outputs": [],
      "stateMutability": "nonpayable",
      "type": "function"
    },
    {
      "inputs": [
        {
          "internalType": "string",
          "name": "_content",
          "type": "string"
        }
      ],
      "name": "writeState",
      "outputs": [
        {
          "internalType": "uint256",
          "name": "_id",
          "type": "uint256"
        }
      ],
      "stateMutability": "nonpayable",
      "type": "function"
    },
    {
      "inputs": [
        {
          "internalType": "uint256",
          "name": "_id",
          "type": "uint256"
        }
      ],
      "name": "getState",
      "outputs": [
        {
          "components": [
            {
              "internalType": "uint256",
              "name": "id",
              "type": "uint256"
            },
            {
              "internalType": "address",
              "name": "owner",
              "type": "address"
            },
            {
              "internalType": "string",
              "name": "content",
              "type": "string"
            }
          ],
          "internalType": "struct MindPin.State",
          "name": "_result",
          "type": "tuple"
        }
      ],
      "stateMutability": "view",
      "type": "function"
    }
  ],
  "bytecode": "0x608060405234801561001057600080fd5b5060006100216100c460201b60201c565b9050806000806101000a81548173ffffffffffffffffffffffffffffffffffffffff021916908373ffffffffffffffffffffffffffffffffffffffff1602179055508073ffffffffffffffffffffffffffffffffffffffff16600073ffffffffffffffffffffffffffffffffffffffff167f8be0079c531659141344cd1fd0a4f28419497f9722a3daafe3b4186f6b6457e060405160405180910390a3506100cc565b600033905090565b61110c806100db6000396000f3fe608060405234801561001057600080fd5b506004361061007d5760003560e01c8063d5c80ecb1161005b578063d5c80ecb146100da578063deca613f1461010c578063f2fde38b1461013c578063fb6e8c88146101585761007d565b806344c9af2814610082578063715018a6146100b25780638da5cb5b146100bc575b600080fd5b61009c60048036038101906100979190610b64565b61018a565b6040516100a99190610d6a565b60405180910390f35b6100ba6102a9565b005b6100c46103e3565b6040516100d19190610cd1565b60405180910390f35b6100f460048036038101906100ef9190610b64565b61040c565b60405161010393929190610da7565b60405180910390f35b61012660048036038101906101219190610b23565b6104de565b6040516101339190610d8c565b60405180910390f35b61015660048036038101906101519190610abe565b6106c2565b005b610172600480360381019061016d9190610ae7565b61086b565b60405161018193929190610da7565b60405180910390f35b610192610952565b60036000838152602001908152602001600020604051806060016040529081600082015481526020016001820160009054906101000a900473ffffffffffffffffffffffffffffffffffffffff1673ffffffffffffffffffffffffffffffffffffffff1673ffffffffffffffffffffffffffffffffffffffff16815260200160028201805461022090610ee6565b80601f016020809104026020016040519081016040528092919081815260200182805461024c90610ee6565b80156102995780601f1061026e57610100808354040283529160200191610299565b820191906000526020600020905b81548152906001019060200180831161027c57829003601f168201915b5050505050815250509050919050565b6102b161094a565b73ffffffffffffffffffffffffffffffffffffffff166102cf6103e3565b73ffffffffffffffffffffffffffffffffffffffff1614610325576040517f08c379a000000000000000000000000000000000000000000000000000000000815260040161031c90610d4a565b60405180910390fd5b600073ffffffffffffffffffffffffffffffffffffffff1660008054906101000a900473ffffffffffffffffffffffffffffffffffffffff1673ffffffffffffffffffffffffffffffffffffffff167f8be0079c531659141344cd1fd0a4f28419497f9722a3daafe3b4186f6b6457e060405160405180910390a360008060006101000a81548173ffffffffffffffffffffffffffffffffffffffff021916908373ffffffffffffffffffffffffffffffffffffffff160217905550565b60008060009054906101000a900473ffffffffffffffffffffffffffffffffffffffff16905090565b60036020528060005260406000206000915090508060000154908060010160009054906101000a900473ffffffffffffffffffffffffffffffffffffffff169080600201805461045b90610ee6565b80601f016020809104026020016040519081016040528092919081815260200182805461048790610ee6565b80156104d45780601f106104a9576101008083540402835291602001916104d4565b820191906000526020600020905b8154815290600101906020018083116104b757829003601f168201915b5050505050905083565b6000600160008154809291906104f390610f49565b91905055506000604051806060016040528060015481526020013373ffffffffffffffffffffffffffffffffffffffff168152602001848152509050806003600060015481526020019081526020016000206000820151816000015560208201518160010160006101000a81548173ffffffffffffffffffffffffffffffffffffffff021916908373ffffffffffffffffffffffffffffffffffffffff16021790555060408201518160020190805190602001906105b2929190610989565b5090505080600260003373ffffffffffffffffffffffffffffffffffffffff1673ffffffffffffffffffffffffffffffffffffffff168152602001908152602001600020600060015481526020019081526020016000206000820151816000015560208201518160010160006101000a81548173ffffffffffffffffffffffffffffffffffffffff021916908373ffffffffffffffffffffffffffffffffffffffff1602179055506040820151816002019080519060200190610676929190610989565b509050507f8e09649ec333e186bd3a8adc8061717bfa5d6b9a134c8c3a061d0459be41fd0f33600154856040516106af93929190610cec565b60405180910390a1600154915050919050565b6106ca61094a565b73ffffffffffffffffffffffffffffffffffffffff166106e86103e3565b73ffffffffffffffffffffffffffffffffffffffff161461073e576040517f08c379a000000000000000000000000000000000000000000000000000000000815260040161073590610d4a565b60405180910390fd5b600073ffffffffffffffffffffffffffffffffffffffff168173ffffffffffffffffffffffffffffffffffffffff1614156107ae576040517f08c379a00000000000000000000000000000000000000000000000000000000081526004016107a590610d2a565b60405180910390fd5b8073ffffffffffffffffffffffffffffffffffffffff1660008054906101000a900473ffffffffffffffffffffffffffffffffffffffff1673ffffffffffffffffffffffffffffffffffffffff167f8be0079c531659141344cd1fd0a4f28419497f9722a3daafe3b4186f6b6457e060405160405180910390a3806000806101000a81548173ffffffffffffffffffffffffffffffffffffffff021916908373ffffffffffffffffffffffffffffffffffffffff16021790555050565b6002602052816000526040600020602052806000526040600020600091509150508060000154908060010160009054906101000a900473ffffffffffffffffffffffffffffffffffffffff16908060020180546108c790610ee6565b80601f01602080910402602001604051908101604052809291908181526020018280546108f390610ee6565b80156109405780601f1061091557610100808354040283529160200191610940565b820191906000526020600020905b81548152906001019060200180831161092357829003601f168201915b5050505050905083565b600033905090565b604051806060016040528060008152602001600073ffffffffffffffffffffffffffffffffffffffff168152602001606081525090565b82805461099590610ee6565b90600052602060002090601f0160209004810192826109b757600085556109fe565b82601f106109d057805160ff19168380011785556109fe565b828001600101855582156109fe579182015b828111156109fd5782518255916020019190600101906109e2565b5b509050610a0b9190610a0f565b5090565b5b80821115610a28576000816000905550600101610a10565b5090565b6000610a3f610a3a84610e0a565b610de5565b905082815260208101848484011115610a5757600080fd5b610a62848285610ea4565b509392505050565b600081359050610a79816110a8565b92915050565b600082601f830112610a9057600080fd5b8135610aa0848260208601610a2c565b91505092915050565b600081359050610ab8816110bf565b92915050565b600060208284031215610ad057600080fd5b6000610ade84828501610a6a565b91505092915050565b60008060408385031215610afa57600080fd5b6000610b0885828601610a6a565b9250506020610b1985828601610aa9565b9150509250929050565b600060208284031215610b3557600080fd5b600082013567ffffffffffffffff811115610b4f57600080fd5b610b5b84828501610a7f565b91505092915050565b600060208284031215610b7657600080fd5b6000610b8484828501610aa9565b91505092915050565b610b9681610e68565b82525050565b610ba581610e68565b82525050565b6000610bb682610e3b565b610bc08185610e46565b9350610bd0818560208601610eb3565b610bd98161101f565b840191505092915050565b6000610bef82610e3b565b610bf98185610e57565b9350610c09818560208601610eb3565b610c128161101f565b840191505092915050565b6000610c2a602683610e57565b9150610c3582611030565b604082019050919050565b6000610c4d602083610e57565b9150610c588261107f565b602082019050919050565b6000606083016000830151610c7b6000860182610cb3565b506020830151610c8e6020860182610b8d565b5060408301518482036040860152610ca68282610bab565b9150508091505092915050565b610cbc81610e9a565b82525050565b610ccb81610e9a565b82525050565b6000602082019050610ce66000830184610b9c565b92915050565b6000606082019050610d016000830186610b9c565b610d0e6020830185610cc2565b8181036040830152610d208184610be4565b9050949350505050565b60006020820190508181036000830152610d4381610c1d565b9050919050565b60006020820190508181036000830152610d6381610c40565b9050919050565b60006020820190508181036000830152610d848184610c63565b905092915050565b6000602082019050610da16000830184610cc2565b92915050565b6000606082019050610dbc6000830186610cc2565b610dc96020830185610b9c565b8181036040830152610ddb8184610be4565b9050949350505050565b6000610def610e00565b9050610dfb8282610f18565b919050565b6000604051905090565b600067ffffffffffffffff821115610e2557610e24610ff0565b5b610e2e8261101f565b9050602081019050919050565b600081519050919050565b600082825260208201905092915050565b600082825260208201905092915050565b6000610e7382610e7a565b9050919050565b600073ffffffffffffffffffffffffffffffffffffffff82169050919050565b6000819050919050565b82818337600083830152505050565b60005b83811015610ed1578082015181840152602081019050610eb6565b83811115610ee0576000848401525b50505050565b60006002820490506001821680610efe57607f821691505b60208210811415610f1257610f11610fc1565b5b50919050565b610f218261101f565b810181811067ffffffffffffffff82111715610f4057610f3f610ff0565b5b80604052505050565b6000610f5482610e9a565b91507fffffffffffffffffffffffffffffffffffffffffffffffffffffffffffffffff821415610f8757610f86610f92565b5b600182019050919050565b7f4e487b7100000000000000000000000000000000000000000000000000000000600052601160045260246000fd5b7f4e487b7100000000000000000000000000000000000000000000000000000000600052602260045260246000fd5b7f4e487b7100000000000000000000000000000000000000000000000000000000600052604160045260246000fd5b6000601f19601f8301169050919050565b7f4f776e61626c653a206e6577206f776e657220697320746865207a65726f206160008201527f6464726573730000000000000000000000000000000000000000000000000000602082015250565b7f4f776e61626c653a2063616c6c6572206973206e6f7420746865206f776e6572600082015250565b6110b181610e68565b81146110bc57600080fd5b50565b6110c881610e9a565b81146110d357600080fd5b5056fea26469706673582212200dc534c606a4616980888f181aa85dd19f8fd49189c724b4b723acf863404bc864736f6c63430008040033",
  "immutableReferences": {},
  "source": "// SPDX-License-Identifier: MIT\r\npragma solidity 0.8.4;\r\n\r\n//imports\r\nimport '@openzeppelin/contracts/access/Ownable.sol';\r\n\r\n/// @title MindingPin Contract\r\n\r\ncontract MindPin is Ownable {\r\n\r\n//variables\r\n  uint private counter; \r\n  \r\n  struct State {\r\n    uint id;\r\n    address owner;\r\n    string content;\r\n  }\r\n\r\n  mapping(address => mapping(uint => State)) public bookStates;\r\n  mapping(uint => State) public NumStates;\r\n    \r\n\r\n//events\r\nevent MindSet(\r\n  address owner,\r\n  uint id,\r\n  string content\r\n);\r\n\r\n// modifier\r\nmodifier isOwner(State memory entry) {\r\n  require(msg.sender == entry.owner, \"Caller is not the owner\");\r\n  _;\r\n}\r\n\r\n//fonctions\r\n\r\n    /** \r\n     * @dev Create a new Mindset \r\n     * @param _content - MindesetContent\r\n     * @return _id - Returns mindset Id\r\n     */\r\n    function writeState(string memory _content) external returns (uint _id) {\r\n        counter++;\r\n        State memory entry = State(counter, msg.sender, _content);\r\n        NumStates[counter] = entry;\r\n        bookStates[msg.sender][counter] = entry;\r\n        emit MindSet(msg.sender, counter, _content);\r\n        return (counter);\r\n    }\r\n\r\n    /** \r\n     * @dev getOneState\r\n     * @param _id - id du State\r\n     * @return _result - Returns state\r\n     */\r\n    function getState(uint _id) public view returns (State memory _result) {\r\n      return NumStates[_id];\r\n    }\r\n\r\n    ///TODO get/Update/delete\r\n}",
  "sourcePath": "D:/work/udemy/module1/solidityClientReact/contracts/MindPin.sol",
  "compiler": {
    "name": "solc",
    "version": "0.8.4+commit.c7e474f2.Emscripten.clang"
  },
  "schemaVersion": "3.4.1",
  "updatedAt": "2021-05-13T22:20:53.685Z",
  "devdoc": {
    "kind": "dev",
    "methods": {
      "getState(uint256)": {
        "details": "getOneState",
        "params": {
          "_id": "- id du State"
        },
        "returns": {
          "_result": "- Returns state"
        }
      },
      "owner()": {
        "details": "Returns the address of the current owner."
      },
      "renounceOwnership()": {
        "details": "Leaves the contract without owner. It will not be possible to call `onlyOwner` functions anymore. Can only be called by the current owner. NOTE: Renouncing ownership will leave the contract without an owner, thereby removing any functionality that is only available to the owner."
      },
      "transferOwnership(address)": {
        "details": "Transfers ownership of the contract to a new account (`newOwner`). Can only be called by the current owner."
      },
      "writeState(string)": {
        "details": "Create a new Mindset ",
        "params": {
          "_content": "- MindesetContent"
        },
        "returns": {
          "_id": "- Returns mindset Id"
        }
      }
    },
    "title": "MindingPin Contract",
    "version": 1
  },
  "userdoc": {
    "kind": "user",
    "methods": {},
    "version": 1
  }
}