{
  "contractName": "MindPin",
  "abi": [
    {
      "anonymous": false,
      "inputs": [
        {
          "indexed": false,
          "internalType": "address",
          "name": "owner",
          "type": "address"
        },
        {
          "indexed": false,
          "internalType": "uint256",
          "name": "id",
          "type": "uint256"
        },
        {
          "indexed": false,
          "internalType": "string",
          "name": "content",
          "type": "string"
        }
      ],
      "name": "DeleteMindSet",
      "type": "event"
    },
    {
      "anonymous": false,
      "inputs": [
        {
          "indexed": false,
          "internalType": "address",
          "name": "owner",
          "type": "address"
        },
        {
          "indexed": false,
          "internalType": "uint256",
          "name": "id",
          "type": "uint256"
        },
        {
          "indexed": false,
          "internalType": "string",
          "name": "content",
          "type": "string"
        }
      ],
      "name": "MindSet",
      "type": "event"
    },
    {
      "anonymous": false,
      "inputs": [
        {
          "indexed": true,
          "internalType": "address",
          "name": "previousOwner",
          "type": "address"
        },
        {
          "indexed": true,
          "internalType": "address",
          "name": "newOwner",
          "type": "address"
        }
      ],
      "name": "OwnershipTransferred",
      "type": "event"
    },
    {
      "anonymous": false,
      "inputs": [
        {
          "indexed": false,
          "internalType": "address",
          "name": "owner",
          "type": "address"
        },
        {
          "indexed": false,
          "internalType": "uint256",
          "name": "id",
          "type": "uint256"
        },
        {
          "indexed": false,
          "internalType": "string",
          "name": "newContent",
          "type": "string"
        },
        {
          "indexed": false,
          "internalType": "string",
          "name": "oldContent",
          "type": "string"
        },
        {
          "indexed": false,
          "internalType": "string",
          "name": "message",
          "type": "string"
        }
      ],
      "name": "UpdateMindSet",
      "type": "event"
    },
    {
      "inputs": [
        {
          "internalType": "address",
          "name": "",
          "type": "address"
        }
      ],
      "name": "AddressEntries",
      "outputs": [
        {
          "internalType": "uint16",
          "name": "",
          "type": "uint16"
        }
      ],
      "stateMutability": "view",
      "type": "function",
      "constant": true
    },
    {
      "inputs": [
        {
          "internalType": "uint256",
          "name": "",
          "type": "uint256"
        }
      ],
      "name": "NumStates",
      "outputs": [
        {
          "internalType": "uint256",
          "name": "id",
          "type": "uint256"
        },
        {
          "internalType": "address",
          "name": "owner",
          "type": "address"
        },
        {
          "internalType": "string",
          "name": "content",
          "type": "string"
        },
        {
          "internalType": "bool",
          "name": "exists",
          "type": "bool"
        }
      ],
      "stateMutability": "view",
      "type": "function",
      "constant": true
    },
    {
      "inputs": [
        {
          "internalType": "address",
          "name": "",
          "type": "address"
        },
        {
          "internalType": "uint256",
          "name": "",
          "type": "uint256"
        }
      ],
      "name": "bookStates",
      "outputs": [
        {
          "internalType": "uint256",
          "name": "id",
          "type": "uint256"
        },
        {
          "internalType": "address",
          "name": "owner",
          "type": "address"
        },
        {
          "internalType": "string",
          "name": "content",
          "type": "string"
        },
        {
          "internalType": "bool",
          "name": "exists",
          "type": "bool"
        }
      ],
      "stateMutability": "view",
      "type": "function",
      "constant": true
    },
    {
      "inputs": [],
      "name": "owner",
      "outputs": [
        {
          "internalType": "address",
          "name": "",
          "type": "address"
        }
      ],
      "stateMutability": "view",
      "type": "function",
      "constant": true
    },
    {
      "inputs": [],
      "name": "renounceOwnership",
      "outputs": [],
      "stateMutability": "nonpayable",
      "type": "function"
    },
    {
      "inputs": [
        {
          "internalType": "address",
          "name": "newOwner",
          "type": "address"
        }
      ],
      "name": "transferOwnership",
      "outputs": [],
      "stateMutability": "nonpayable",
      "type": "function"
    },
    {
      "inputs": [
        {
          "internalType": "string",
          "name": "_content",
          "type": "string"
        }
      ],
      "name": "writeState",
      "outputs": [
        {
          "internalType": "uint256",
          "name": "id",
          "type": "uint256"
        }
      ],
      "stateMutability": "nonpayable",
      "type": "function"
    },
    {
      "inputs": [
        {
          "internalType": "uint256",
          "name": "_id",
          "type": "uint256"
        }
      ],
      "name": "getState",
      "outputs": [
        {
          "components": [
            {
              "internalType": "uint256",
              "name": "id",
              "type": "uint256"
            },
            {
              "internalType": "address",
              "name": "owner",
              "type": "address"
            },
            {
              "internalType": "string",
              "name": "content",
              "type": "string"
            },
            {
              "internalType": "bool",
              "name": "exists",
              "type": "bool"
            }
          ],
          "internalType": "struct MindPin.State",
          "name": "result",
          "type": "tuple"
        }
      ],
      "stateMutability": "view",
      "type": "function",
      "constant": true
    },
    {
      "inputs": [
        {
          "internalType": "uint256",
          "name": "_id",
          "type": "uint256"
        }
      ],
      "name": "deleteState",
      "outputs": [
        {
          "internalType": "string",
          "name": "message",
          "type": "string"
        }
      ],
      "stateMutability": "nonpayable",
      "type": "function"
    },
    {
      "inputs": [
        {
          "internalType": "uint256",
          "name": "_id",
          "type": "uint256"
        },
        {
          "internalType": "string",
          "name": "_content",
          "type": "string"
        }
      ],
      "name": "updateState",
      "outputs": [
        {
          "internalType": "string",
          "name": "message",
          "type": "string"
        }
      ],
      "stateMutability": "nonpayable",
      "type": "function"
    }
  ],
  "bytecode": "0x608060405234801561001057600080fd5b5060006100216100c460201b60201c565b9050806000806101000a81548173ffffffffffffffffffffffffffffffffffffffff021916908373ffffffffffffffffffffffffffffffffffffffff1602179055508073ffffffffffffffffffffffffffffffffffffffff16600073ffffffffffffffffffffffffffffffffffffffff167f8be0079c531659141344cd1fd0a4f28419497f9722a3daafe3b4186f6b6457e060405160405180910390a3506100cc565b600033905090565b611a7c806100db6000396000f3fe608060405234801561001057600080fd5b506004361061009e5760003560e01c8063d5c80ecb11610066578063d5c80ecb1461015b578063deca613f1461018e578063e813a37f146101be578063f2fde38b146101ee578063fb6e8c881461020a5761009e565b806337eb3906146100a357806344c9af28146100d3578063715018a6146101035780638da5cb5b1461010d578063c0bbc9f11461012b575b600080fd5b6100bd60048036038101906100b89190611263565b61023d565b6040516100ca919061156b565b60405180910390f35b6100ed60048036038101906100e89190611263565b610485565b6040516100fa919061160d565b60405180910390f35b61010b6105bf565b005b6101156106f9565b60405161012291906114aa565b60405180910390f35b6101456004803603810190610140919061128c565b610722565b604051610152919061156b565b60405180910390f35b61017560048036038101906101709190611263565b6109bf565b6040516101859493929190611665565b60405180910390f35b6101a860048036038101906101a39190611222565b610aa4565b6040516101b5919061164a565b60405180910390f35b6101d860048036038101906101d391906111bd565b610d84565b6040516101e5919061162f565b60405180910390f35b610208600480360381019061020391906111bd565b610da5565b005b610224600480360381019061021f91906111e6565b610f4e565b6040516102349493929190611665565b60405180910390f35b606061024882610485565b806020015173ffffffffffffffffffffffffffffffffffffffff163373ffffffffffffffffffffffffffffffffffffffff16146102ba576040517f08c379a00000000000000000000000000000000000000000000000000000000081526004016102b19061158d565b60405180910390fd5b604051806020016040528060008152506003600085815260200190815260200160002060020190805190602001906102f3929190611048565b5060405180602001604052806000815250600260003373ffffffffffffffffffffffffffffffffffffffff1673ffffffffffffffffffffffffffffffffffffffff1681526020019081526020016000206000858152602001908152602001600020600201908051906020019061036a929190611048565b5060006003600085815260200190815260200160002060030160006101000a81548160ff0219169083151502179055506000600260003373ffffffffffffffffffffffffffffffffffffffff1673ffffffffffffffffffffffffffffffffffffffff168152602001908152602001600020600085815260200190815260200160002060030160006101000a81548160ff02191690831515021790555060006040518060400160405280600c81526020017f537461746520657261736564000000000000000000000000000000000000000081525090507f43de1222051034d68b177342d45204d9ce9d0d9e67aabd7eec854923e6de1264338583604051610473939291906114c5565b60405180910390a18092505050919050565b61048d6110ce565b60036000838152602001908152602001600020604051806080016040529081600082015481526020016001820160009054906101000a900473ffffffffffffffffffffffffffffffffffffffff1673ffffffffffffffffffffffffffffffffffffffff1673ffffffffffffffffffffffffffffffffffffffff16815260200160028201805461051b90611804565b80601f016020809104026020016040519081016040528092919081815260200182805461054790611804565b80156105945780601f1061056957610100808354040283529160200191610594565b820191906000526020600020905b81548152906001019060200180831161057757829003601f168201915b505050505081526020016003820160009054906101000a900460ff1615151515815250509050919050565b6105c7611040565b73ffffffffffffffffffffffffffffffffffffffff166105e56106f9565b73ffffffffffffffffffffffffffffffffffffffff161461063b576040517f08c379a0000000000000000000000000000000000000000000000000000000008152600401610632906115cd565b60405180910390fd5b600073ffffffffffffffffffffffffffffffffffffffff1660008054906101000a900473ffffffffffffffffffffffffffffffffffffffff1673ffffffffffffffffffffffffffffffffffffffff167f8be0079c531659141344cd1fd0a4f28419497f9722a3daafe3b4186f6b6457e060405160405180910390a360008060006101000a81548173ffffffffffffffffffffffffffffffffffffffff021916908373ffffffffffffffffffffffffffffffffffffffff160217905550565b60008060009054906101000a900473ffffffffffffffffffffffffffffffffffffffff16905090565b606061072d83610485565b806020015173ffffffffffffffffffffffffffffffffffffffff163373ffffffffffffffffffffffffffffffffffffffff161461079f576040517f08c379a00000000000000000000000000000000000000000000000000000000081526004016107969061158d565b60405180910390fd5b836003600082815260200190815260200160002060030160009054906101000a900460ff16610803576040517f08c379a00000000000000000000000000000000000000000000000000000000081526004016107fa906115ed565b60405180910390fd5b600060036000878152602001908152602001600020600201805461082690611804565b80601f016020809104026020016040519081016040528092919081815260200182805461085290611804565b801561089f5780601f106108745761010080835404028352916020019161089f565b820191906000526020600020905b81548152906001019060200180831161088257829003601f168201915b50505050509050846003600088815260200190815260200160002060020190805190602001906108d0929190611048565b5084600260003373ffffffffffffffffffffffffffffffffffffffff1673ffffffffffffffffffffffffffffffffffffffff16815260200190815260200160002060008881526020019081526020016000206002019080519060200190610938929190611048565b5060006040518060400160405280600e81526020017f537461746520757064617465642100000000000000000000000000000000000081525090507f34907d2a723513a2596d17a004ff36658763dfc224513d26c52369730068a91c33888885856040516109aa959493929190611503565b60405180910390a18094505050505092915050565b60036020528060005260406000206000915090508060000154908060010160009054906101000a900473ffffffffffffffffffffffffffffffffffffffff1690806002018054610a0e90611804565b80601f0160208091040260200160405190810160405280929190818152602001828054610a3a90611804565b8015610a875780601f10610a5c57610100808354040283529160200191610a87565b820191906000526020600020905b815481529060010190602001808311610a6a57829003601f168201915b5050505050908060030160009054906101000a900460ff16905084565b600060016000815480929190610ab990611867565b91905055506000604051806080016040528060015481526020013373ffffffffffffffffffffffffffffffffffffffff168152602001848152602001600115158152509050806003600060015481526020019081526020016000206000820151816000015560208201518160010160006101000a81548173ffffffffffffffffffffffffffffffffffffffff021916908373ffffffffffffffffffffffffffffffffffffffff1602179055506040820151816002019080519060200190610b81929190611048565b5060608201518160030160006101000a81548160ff02191690831515021790555090505080600260003373ffffffffffffffffffffffffffffffffffffffff1673ffffffffffffffffffffffffffffffffffffffff168152602001908152602001600020600060015481526020019081526020016000206000820151816000015560208201518160010160006101000a81548173ffffffffffffffffffffffffffffffffffffffff021916908373ffffffffffffffffffffffffffffffffffffffff1602179055506040820151816002019080519060200190610c65929190611048565b5060608201518160030160006101000a81548160ff0219169083151502179055509050506001600460003373ffffffffffffffffffffffffffffffffffffffff1673ffffffffffffffffffffffffffffffffffffffff16815260200190815260200160002060009054906101000a900461ffff16610ce39190611734565b600460003373ffffffffffffffffffffffffffffffffffffffff1673ffffffffffffffffffffffffffffffffffffffff16815260200190815260200160002060006101000a81548161ffff021916908361ffff1602179055507f8e09649ec333e186bd3a8adc8061717bfa5d6b9a134c8c3a061d0459be41fd0f3360015485604051610d71939291906114c5565b60405180910390a1600154915050919050565b60046020528060005260406000206000915054906101000a900461ffff1681565b610dad611040565b73ffffffffffffffffffffffffffffffffffffffff16610dcb6106f9565b73ffffffffffffffffffffffffffffffffffffffff1614610e21576040517f08c379a0000000000000000000000000000000000000000000000000000000008152600401610e18906115cd565b60405180910390fd5b600073ffffffffffffffffffffffffffffffffffffffff168173ffffffffffffffffffffffffffffffffffffffff161415610e91576040517f08c379a0000000000000000000000000000000000000000000000000000000008152600401610e88906115ad565b60405180910390fd5b8073ffffffffffffffffffffffffffffffffffffffff1660008054906101000a900473ffffffffffffffffffffffffffffffffffffffff1673ffffffffffffffffffffffffffffffffffffffff167f8be0079c531659141344cd1fd0a4f28419497f9722a3daafe3b4186f6b6457e060405160405180910390a3806000806101000a81548173ffffffffffffffffffffffffffffffffffffffff021916908373ffffffffffffffffffffffffffffffffffffffff16021790555050565b6002602052816000526040600020602052806000526040600020600091509150508060000154908060010160009054906101000a900473ffffffffffffffffffffffffffffffffffffffff1690806002018054610faa90611804565b80601f0160208091040260200160405190810160405280929190818152602001828054610fd690611804565b80156110235780601f10610ff857610100808354040283529160200191611023565b820191906000526020600020905b81548152906001019060200180831161100657829003601f168201915b5050505050908060030160009054906101000a900460ff16905084565b600033905090565b82805461105490611804565b90600052602060002090601f01602090048101928261107657600085556110bd565b82601f1061108f57805160ff19168380011785556110bd565b828001600101855582156110bd579182015b828111156110bc5782518255916020019190600101906110a1565b5b5090506110ca919061110e565b5090565b604051806080016040528060008152602001600073ffffffffffffffffffffffffffffffffffffffff168152602001606081526020016000151581525090565b5b8082111561112757600081600090555060010161110f565b5090565b600061113e611139846116d6565b6116b1565b90508281526020810184848401111561115657600080fd5b6111618482856117c2565b509392505050565b60008135905061117881611a18565b92915050565b600082601f83011261118f57600080fd5b813561119f84826020860161112b565b91505092915050565b6000813590506111b781611a2f565b92915050565b6000602082840312156111cf57600080fd5b60006111dd84828501611169565b91505092915050565b600080604083850312156111f957600080fd5b600061120785828601611169565b9250506020611218858286016111a8565b9150509250929050565b60006020828403121561123457600080fd5b600082013567ffffffffffffffff81111561124e57600080fd5b61125a8482850161117e565b91505092915050565b60006020828403121561127557600080fd5b6000611283848285016111a8565b91505092915050565b6000806040838503121561129f57600080fd5b60006112ad858286016111a8565b925050602083013567ffffffffffffffff8111156112ca57600080fd5b6112d68582860161117e565b9150509250929050565b6112e98161176c565b82525050565b6112f88161176c565b82525050565b6113078161177e565b82525050565b6113168161177e565b82525050565b600061132782611707565b6113318185611712565b93506113418185602086016117d1565b61134a8161193d565b840191505092915050565b600061136082611707565b61136a8185611723565b935061137a8185602086016117d1565b6113838161193d565b840191505092915050565b600061139b601783611723565b91506113a68261194e565b602082019050919050565b60006113be602683611723565b91506113c982611977565b604082019050919050565b60006113e1602083611723565b91506113ec826119c6565b602082019050919050565b6000611404601983611723565b915061140f826119ef565b602082019050919050565b6000608083016000830151611432600086018261148c565b50602083015161144560208601826112e0565b506040830151848203604086015261145d828261131c565b915050606083015161147260608601826112fe565b508091505092915050565b6114868161178a565b82525050565b611495816117b8565b82525050565b6114a4816117b8565b82525050565b60006020820190506114bf60008301846112ef565b92915050565b60006060820190506114da60008301866112ef565b6114e7602083018561149b565b81810360408301526114f98184611355565b9050949350505050565b600060a08201905061151860008301886112ef565b611525602083018761149b565b81810360408301526115378186611355565b9050818103606083015261154b8185611355565b9050818103608083015261155f8184611355565b90509695505050505050565b600060208201905081810360008301526115858184611355565b905092915050565b600060208201905081810360008301526115a68161138e565b9050919050565b600060208201905081810360008301526115c6816113b1565b9050919050565b600060208201905081810360008301526115e6816113d4565b9050919050565b60006020820190508181036000830152611606816113f7565b9050919050565b60006020820190508181036000830152611627818461141a565b905092915050565b6000602082019050611644600083018461147d565b92915050565b600060208201905061165f600083018461149b565b92915050565b600060808201905061167a600083018761149b565b61168760208301866112ef565b81810360408301526116998185611355565b90506116a8606083018461130d565b95945050505050565b60006116bb6116cc565b90506116c78282611836565b919050565b6000604051905090565b600067ffffffffffffffff8211156116f1576116f061190e565b5b6116fa8261193d565b9050602081019050919050565b600081519050919050565b600082825260208201905092915050565b600082825260208201905092915050565b600061173f8261178a565b915061174a8361178a565b92508261ffff03821115611761576117606118b0565b5b828201905092915050565b600061177782611798565b9050919050565b60008115159050919050565b600061ffff82169050919050565b600073ffffffffffffffffffffffffffffffffffffffff82169050919050565b6000819050919050565b82818337600083830152505050565b60005b838110156117ef5780820151818401526020810190506117d4565b838111156117fe576000848401525b50505050565b6000600282049050600182168061181c57607f821691505b602082108114156118305761182f6118df565b5b50919050565b61183f8261193d565b810181811067ffffffffffffffff8211171561185e5761185d61190e565b5b80604052505050565b6000611872826117b8565b91507fffffffffffffffffffffffffffffffffffffffffffffffffffffffffffffffff8214156118a5576118a46118b0565b5b600182019050919050565b7f4e487b7100000000000000000000000000000000000000000000000000000000600052601160045260246000fd5b7f4e487b7100000000000000000000000000000000000000000000000000000000600052602260045260246000fd5b7f4e487b7100000000000000000000000000000000000000000000000000000000600052604160045260246000fd5b6000601f19601f8301169050919050565b7f43616c6c6572206973206e6f7420746865206f776e6572000000000000000000600082015250565b7f4f776e61626c653a206e6577206f776e657220697320746865207a65726f206160008201527f6464726573730000000000000000000000000000000000000000000000000000602082015250565b7f4f776e61626c653a2063616c6c6572206973206e6f7420746865206f776e6572600082015250565b7f4e6f20737461746520746f207570646174652068657265202100000000000000600082015250565b611a218161176c565b8114611a2c57600080fd5b50565b611a38816117b8565b8114611a4357600080fd5b5056fea2646970667358221220a8c3490c80055bef6b7df9b210a385b952f012c0fc260b9dc8aa463daef9ff7f64736f6c63430008040033",
  "immutableReferences": {},
  "source": "// SPDX-License-Identifier: MIT\npragma solidity 0.8.4;\n\n//imports\nimport '@openzeppelin/contracts/access/Ownable.sol';\n\n/// @title MindingPin Contract\n\ncontract MindPin is Ownable {\n\n//variables\n  uint private counter; \n  \n  struct State {\n    uint id;\n    address owner;\n    string content;\n    bool exists;\n  }\n\n  //2 mappings un pour avoir l'ensemble des states peu importe le owner et l'autre cf owner\n  mapping(address => mapping(uint => State)) public bookStates;\n  mapping(uint => State) public NumStates;\n  \n  //nombre d'entres par owner\n  mapping(address => uint16) public AddressEntries;\n\n//events\nevent MindSet(\n  address owner,\n  uint id,\n  string content\n);\n\nevent DeleteMindSet(\n  address owner,\n  uint id,\n  string content\n);\n\nevent UpdateMindSet(\n  address owner,\n  uint id,\n  string newContent,\n  string oldContent,\n  string message\n);\n\n// modifier\nmodifier isOwner(State memory entry) {\n  require(msg.sender == entry.owner, \"Caller is not the owner\");\n  _;\n}\n\nmodifier isOkToUpdate(uint _id) {\n  require(NumStates[_id].exists   , \"No state to update here !\");\n  _;\n}\n\n//fonctions\n\n    /** \n     * @dev Create a new Mindset \n     * @param _content - MindesetContent\n     * @return id - Returns mindset Id\n     */\n    function writeState(string memory _content) external returns (uint id) {\n        counter++;\n        State memory entry = State(counter, msg.sender, _content, true);\n        NumStates[counter] = entry;\n        bookStates[msg.sender][counter] = entry;\n        AddressEntries[msg.sender] = AddressEntries[msg.sender]+1;\n        emit MindSet(msg.sender, counter, _content);\n        return (counter);\n    }\n\n    /** \n     * @dev getOneState\n     * @param _id - State's id\n     * @return result - Returns state\n     */\n    function getState(uint _id) public view returns (State memory result) {\n      return NumStates[_id];\n    }\n\n     /** \n     * @dev deleteOneState\n     * @param _id - State's id\n     * @return message - Returns confirm message\n     */\n    function deleteState(uint _id) public isOwner(getState(_id)) returns (string memory message) {\n      NumStates[_id].content = \"\";\n      bookStates[msg.sender][_id].content = \"\";\n      NumStates[_id].exists = false;\n      bookStates[msg.sender][_id].exists = false;\n      string memory _message = \"State erased\";\n      emit DeleteMindSet(msg.sender, _id, _message);\n      return _message;\n    }\n\n    /** \n     * @dev updateState\n     * @param _id - State's id\n     * @param _content - State's content to update\n     * @return message - Returns confirm message\n     */\n    function updateState(uint _id, string memory _content) public isOwner(getState(_id)) isOkToUpdate(_id) returns (string memory message) {\n      string memory oldStateContent = NumStates[_id].content;\n      NumStates[_id].content =  _content;\n      bookStates[msg.sender][_id].content = _content;\n      string memory _message = \"State updated!\";\n      emit UpdateMindSet(msg.sender, _id, _content, oldStateContent, _message);\n      return _message;\n    }\n}",
  "sourcePath": "D:/work/udemy/module1/solidityClientReact/contracts/MindPin.sol",
  "compiler": {
    "name": "solc",
    "version": "0.8.4+commit.c7e474f2.Emscripten.clang"
  },
  "schemaVersion": "3.4.1",
  "updatedAt": "2021-05-16T20:01:24.149Z",
  "networkType": "ethereum",
  "devdoc": {
    "kind": "dev",
    "methods": {
      "deleteState(uint256)": {
        "details": "deleteOneState",
        "params": {
          "_id": "- State's id"
        },
        "returns": {
          "message": "- Returns confirm message"
        }
      },
      "getState(uint256)": {
        "details": "getOneState",
        "params": {
          "_id": "- State's id"
        },
        "returns": {
          "result": "- Returns state"
        }
      },
      "owner()": {
        "details": "Returns the address of the current owner."
      },
      "renounceOwnership()": {
        "details": "Leaves the contract without owner. It will not be possible to call `onlyOwner` functions anymore. Can only be called by the current owner. NOTE: Renouncing ownership will leave the contract without an owner, thereby removing any functionality that is only available to the owner."
      },
      "transferOwnership(address)": {
        "details": "Transfers ownership of the contract to a new account (`newOwner`). Can only be called by the current owner."
      },
      "updateState(uint256,string)": {
        "details": "updateState",
        "params": {
          "_content": "- State's content to update",
          "_id": "- State's id"
        },
        "returns": {
          "message": "- Returns confirm message"
        }
      },
      "writeState(string)": {
        "details": "Create a new Mindset ",
        "params": {
          "_content": "- MindesetContent"
        },
        "returns": {
          "id": "- Returns mindset Id"
        }
      }
    },
    "title": "MindingPin Contract",
    "version": 1
  },
  "userdoc": {
    "kind": "user",
    "methods": {},
    "version": 1
  }
}