{
  "contractName": "MindPin",
  "abi": [
    {
      "anonymous": false,
      "inputs": [
        {
          "indexed": false,
          "internalType": "address",
          "name": "owner",
          "type": "address"
        },
        {
          "indexed": false,
          "internalType": "uint256",
          "name": "id",
          "type": "uint256"
        },
        {
          "indexed": false,
          "internalType": "string",
          "name": "content",
          "type": "string"
        }
      ],
      "name": "DeleteMindSet",
      "type": "event"
    },
    {
      "anonymous": false,
      "inputs": [
        {
          "indexed": false,
          "internalType": "address",
          "name": "owner",
          "type": "address"
        },
        {
          "indexed": false,
          "internalType": "uint256",
          "name": "id",
          "type": "uint256"
        },
        {
          "indexed": false,
          "internalType": "string",
          "name": "content",
          "type": "string"
        }
      ],
      "name": "MindSet",
      "type": "event"
    },
    {
      "anonymous": false,
      "inputs": [
        {
          "indexed": true,
          "internalType": "address",
          "name": "previousOwner",
          "type": "address"
        },
        {
          "indexed": true,
          "internalType": "address",
          "name": "newOwner",
          "type": "address"
        }
      ],
      "name": "OwnershipTransferred",
      "type": "event"
    },
    {
      "anonymous": false,
      "inputs": [
        {
          "indexed": false,
          "internalType": "address",
          "name": "owner",
          "type": "address"
        },
        {
          "indexed": false,
          "internalType": "uint256",
          "name": "id",
          "type": "uint256"
        },
        {
          "indexed": false,
          "internalType": "string",
          "name": "newContent",
          "type": "string"
        },
        {
          "indexed": false,
          "internalType": "string",
          "name": "oldContent",
          "type": "string"
        },
        {
          "indexed": false,
          "internalType": "string",
          "name": "message",
          "type": "string"
        }
      ],
      "name": "UpdateMindSet",
      "type": "event"
    },
    {
      "inputs": [
        {
          "internalType": "address",
          "name": "",
          "type": "address"
        }
      ],
      "name": "AddressEntries",
      "outputs": [
        {
          "internalType": "uint16",
          "name": "",
          "type": "uint16"
        }
      ],
      "stateMutability": "view",
      "type": "function",
      "constant": true
    },
    {
      "inputs": [
        {
          "internalType": "uint256",
          "name": "",
          "type": "uint256"
        }
      ],
      "name": "NumStates",
      "outputs": [
        {
          "internalType": "uint256",
          "name": "id",
          "type": "uint256"
        },
        {
          "internalType": "address",
          "name": "owner",
          "type": "address"
        },
        {
          "internalType": "string",
          "name": "content",
          "type": "string"
        },
        {
          "internalType": "bool",
          "name": "exists",
          "type": "bool"
        }
      ],
      "stateMutability": "view",
      "type": "function",
      "constant": true
    },
    {
      "inputs": [
        {
          "internalType": "address",
          "name": "",
          "type": "address"
        },
        {
          "internalType": "uint256",
          "name": "",
          "type": "uint256"
        }
      ],
      "name": "bookStates",
      "outputs": [
        {
          "internalType": "uint256",
          "name": "id",
          "type": "uint256"
        },
        {
          "internalType": "address",
          "name": "owner",
          "type": "address"
        },
        {
          "internalType": "string",
          "name": "content",
          "type": "string"
        },
        {
          "internalType": "bool",
          "name": "exists",
          "type": "bool"
        }
      ],
      "stateMutability": "view",
      "type": "function",
      "constant": true
    },
    {
      "inputs": [],
      "name": "counter",
      "outputs": [
        {
          "internalType": "uint256",
          "name": "",
          "type": "uint256"
        }
      ],
      "stateMutability": "view",
      "type": "function",
      "constant": true
    },
    {
      "inputs": [],
      "name": "owner",
      "outputs": [
        {
          "internalType": "address",
          "name": "",
          "type": "address"
        }
      ],
      "stateMutability": "view",
      "type": "function",
      "constant": true
    },
    {
      "inputs": [],
      "name": "renounceOwnership",
      "outputs": [],
      "stateMutability": "nonpayable",
      "type": "function"
    },
    {
      "inputs": [
        {
          "internalType": "address",
          "name": "newOwner",
          "type": "address"
        }
      ],
      "name": "transferOwnership",
      "outputs": [],
      "stateMutability": "nonpayable",
      "type": "function"
    },
    {
      "inputs": [
        {
          "internalType": "string",
          "name": "_content",
          "type": "string"
        }
      ],
      "name": "writeState",
      "outputs": [
        {
          "internalType": "uint256",
          "name": "id",
          "type": "uint256"
        }
      ],
      "stateMutability": "nonpayable",
      "type": "function"
    },
    {
      "inputs": [
        {
          "internalType": "uint256",
          "name": "_id",
          "type": "uint256"
        }
      ],
      "name": "getState",
      "outputs": [
        {
          "components": [
            {
              "internalType": "uint256",
              "name": "id",
              "type": "uint256"
            },
            {
              "internalType": "address",
              "name": "owner",
              "type": "address"
            },
            {
              "internalType": "string",
              "name": "content",
              "type": "string"
            },
            {
              "internalType": "bool",
              "name": "exists",
              "type": "bool"
            }
          ],
          "internalType": "struct MindPin.State",
          "name": "result",
          "type": "tuple"
        }
      ],
      "stateMutability": "view",
      "type": "function",
      "constant": true
    },
    {
      "inputs": [
        {
          "internalType": "uint256",
          "name": "_id",
          "type": "uint256"
        }
      ],
      "name": "deleteState",
      "outputs": [
        {
          "internalType": "string",
          "name": "message",
          "type": "string"
        }
      ],
      "stateMutability": "nonpayable",
      "type": "function"
    },
    {
      "inputs": [
        {
          "internalType": "uint256",
          "name": "_id",
          "type": "uint256"
        },
        {
          "internalType": "string",
          "name": "_content",
          "type": "string"
        }
      ],
      "name": "updateState",
      "outputs": [
        {
          "internalType": "string",
          "name": "message",
          "type": "string"
        }
      ],
      "stateMutability": "nonpayable",
      "type": "function"
    }
  ],
  "bytecode": "0x608060405234801561001057600080fd5b5060006100216100c460201b60201c565b9050806000806101000a81548173ffffffffffffffffffffffffffffffffffffffff021916908373ffffffffffffffffffffffffffffffffffffffff1602179055508073ffffffffffffffffffffffffffffffffffffffff16600073ffffffffffffffffffffffffffffffffffffffff167f8be0079c531659141344cd1fd0a4f28419497f9722a3daafe3b4186f6b6457e060405160405180910390a3506100cc565b600033905090565b611aab806100db6000396000f3fe608060405234801561001057600080fd5b50600436106100a95760003560e01c8063c0bbc9f111610071578063c0bbc9f114610154578063d5c80ecb14610184578063deca613f146101b7578063e813a37f146101e7578063f2fde38b14610217578063fb6e8c8814610233576100a9565b806337eb3906146100ae57806344c9af28146100de57806361bc221a1461010e578063715018a61461012c5780638da5cb5b14610136575b600080fd5b6100c860048036038101906100c39190611292565b610266565b6040516100d5919061159a565b60405180910390f35b6100f860048036038101906100f39190611292565b6104ae565b604051610105919061163c565b60405180910390f35b6101166105e8565b6040516101239190611679565b60405180910390f35b6101346105ee565b005b61013e610728565b60405161014b91906114d9565b60405180910390f35b61016e600480360381019061016991906112bb565b610751565b60405161017b919061159a565b60405180910390f35b61019e60048036038101906101999190611292565b6109ee565b6040516101ae9493929190611694565b60405180910390f35b6101d160048036038101906101cc9190611251565b610ad3565b6040516101de9190611679565b60405180910390f35b61020160048036038101906101fc91906111ec565b610db3565b60405161020e919061165e565b60405180910390f35b610231600480360381019061022c91906111ec565b610dd4565b005b61024d60048036038101906102489190611215565b610f7d565b60405161025d9493929190611694565b60405180910390f35b6060610271826104ae565b806020015173ffffffffffffffffffffffffffffffffffffffff163373ffffffffffffffffffffffffffffffffffffffff16146102e3576040517f08c379a00000000000000000000000000000000000000000000000000000000081526004016102da906115bc565b60405180910390fd5b6040518060200160405280600081525060036000858152602001908152602001600020600201908051906020019061031c929190611077565b5060405180602001604052806000815250600260003373ffffffffffffffffffffffffffffffffffffffff1673ffffffffffffffffffffffffffffffffffffffff16815260200190815260200160002060008581526020019081526020016000206002019080519060200190610393929190611077565b5060006003600085815260200190815260200160002060030160006101000a81548160ff0219169083151502179055506000600260003373ffffffffffffffffffffffffffffffffffffffff1673ffffffffffffffffffffffffffffffffffffffff168152602001908152602001600020600085815260200190815260200160002060030160006101000a81548160ff02191690831515021790555060006040518060400160405280600c81526020017f537461746520657261736564000000000000000000000000000000000000000081525090507f43de1222051034d68b177342d45204d9ce9d0d9e67aabd7eec854923e6de126433858360405161049c939291906114f4565b60405180910390a18092505050919050565b6104b66110fd565b60036000838152602001908152602001600020604051806080016040529081600082015481526020016001820160009054906101000a900473ffffffffffffffffffffffffffffffffffffffff1673ffffffffffffffffffffffffffffffffffffffff1673ffffffffffffffffffffffffffffffffffffffff16815260200160028201805461054490611833565b80601f016020809104026020016040519081016040528092919081815260200182805461057090611833565b80156105bd5780601f10610592576101008083540402835291602001916105bd565b820191906000526020600020905b8154815290600101906020018083116105a057829003601f168201915b505050505081526020016003820160009054906101000a900460ff1615151515815250509050919050565b60015481565b6105f661106f565b73ffffffffffffffffffffffffffffffffffffffff16610614610728565b73ffffffffffffffffffffffffffffffffffffffff161461066a576040517f08c379a0000000000000000000000000000000000000000000000000000000008152600401610661906115fc565b60405180910390fd5b600073ffffffffffffffffffffffffffffffffffffffff1660008054906101000a900473ffffffffffffffffffffffffffffffffffffffff1673ffffffffffffffffffffffffffffffffffffffff167f8be0079c531659141344cd1fd0a4f28419497f9722a3daafe3b4186f6b6457e060405160405180910390a360008060006101000a81548173ffffffffffffffffffffffffffffffffffffffff021916908373ffffffffffffffffffffffffffffffffffffffff160217905550565b60008060009054906101000a900473ffffffffffffffffffffffffffffffffffffffff16905090565b606061075c836104ae565b806020015173ffffffffffffffffffffffffffffffffffffffff163373ffffffffffffffffffffffffffffffffffffffff16146107ce576040517f08c379a00000000000000000000000000000000000000000000000000000000081526004016107c5906115bc565b60405180910390fd5b836003600082815260200190815260200160002060030160009054906101000a900460ff16610832576040517f08c379a00000000000000000000000000000000000000000000000000000000081526004016108299061161c565b60405180910390fd5b600060036000878152602001908152602001600020600201805461085590611833565b80601f016020809104026020016040519081016040528092919081815260200182805461088190611833565b80156108ce5780601f106108a3576101008083540402835291602001916108ce565b820191906000526020600020905b8154815290600101906020018083116108b157829003601f168201915b50505050509050846003600088815260200190815260200160002060020190805190602001906108ff929190611077565b5084600260003373ffffffffffffffffffffffffffffffffffffffff1673ffffffffffffffffffffffffffffffffffffffff16815260200190815260200160002060008881526020019081526020016000206002019080519060200190610967929190611077565b5060006040518060400160405280600e81526020017f537461746520757064617465642100000000000000000000000000000000000081525090507f34907d2a723513a2596d17a004ff36658763dfc224513d26c52369730068a91c33888885856040516109d9959493929190611532565b60405180910390a18094505050505092915050565b60036020528060005260406000206000915090508060000154908060010160009054906101000a900473ffffffffffffffffffffffffffffffffffffffff1690806002018054610a3d90611833565b80601f0160208091040260200160405190810160405280929190818152602001828054610a6990611833565b8015610ab65780601f10610a8b57610100808354040283529160200191610ab6565b820191906000526020600020905b815481529060010190602001808311610a9957829003601f168201915b5050505050908060030160009054906101000a900460ff16905084565b600060016000815480929190610ae890611896565b91905055506000604051806080016040528060015481526020013373ffffffffffffffffffffffffffffffffffffffff168152602001848152602001600115158152509050806003600060015481526020019081526020016000206000820151816000015560208201518160010160006101000a81548173ffffffffffffffffffffffffffffffffffffffff021916908373ffffffffffffffffffffffffffffffffffffffff1602179055506040820151816002019080519060200190610bb0929190611077565b5060608201518160030160006101000a81548160ff02191690831515021790555090505080600260003373ffffffffffffffffffffffffffffffffffffffff1673ffffffffffffffffffffffffffffffffffffffff168152602001908152602001600020600060015481526020019081526020016000206000820151816000015560208201518160010160006101000a81548173ffffffffffffffffffffffffffffffffffffffff021916908373ffffffffffffffffffffffffffffffffffffffff1602179055506040820151816002019080519060200190610c94929190611077565b5060608201518160030160006101000a81548160ff0219169083151502179055509050506001600460003373ffffffffffffffffffffffffffffffffffffffff1673ffffffffffffffffffffffffffffffffffffffff16815260200190815260200160002060009054906101000a900461ffff16610d129190611763565b600460003373ffffffffffffffffffffffffffffffffffffffff1673ffffffffffffffffffffffffffffffffffffffff16815260200190815260200160002060006101000a81548161ffff021916908361ffff1602179055507f8e09649ec333e186bd3a8adc8061717bfa5d6b9a134c8c3a061d0459be41fd0f3360015485604051610da0939291906114f4565b60405180910390a1600154915050919050565b60046020528060005260406000206000915054906101000a900461ffff1681565b610ddc61106f565b73ffffffffffffffffffffffffffffffffffffffff16610dfa610728565b73ffffffffffffffffffffffffffffffffffffffff1614610e50576040517f08c379a0000000000000000000000000000000000000000000000000000000008152600401610e47906115fc565b60405180910390fd5b600073ffffffffffffffffffffffffffffffffffffffff168173ffffffffffffffffffffffffffffffffffffffff161415610ec0576040517f08c379a0000000000000000000000000000000000000000000000000000000008152600401610eb7906115dc565b60405180910390fd5b8073ffffffffffffffffffffffffffffffffffffffff1660008054906101000a900473ffffffffffffffffffffffffffffffffffffffff1673ffffffffffffffffffffffffffffffffffffffff167f8be0079c531659141344cd1fd0a4f28419497f9722a3daafe3b4186f6b6457e060405160405180910390a3806000806101000a81548173ffffffffffffffffffffffffffffffffffffffff021916908373ffffffffffffffffffffffffffffffffffffffff16021790555050565b6002602052816000526040600020602052806000526040600020600091509150508060000154908060010160009054906101000a900473ffffffffffffffffffffffffffffffffffffffff1690806002018054610fd990611833565b80601f016020809104026020016040519081016040528092919081815260200182805461100590611833565b80156110525780601f1061102757610100808354040283529160200191611052565b820191906000526020600020905b81548152906001019060200180831161103557829003601f168201915b5050505050908060030160009054906101000a900460ff16905084565b600033905090565b82805461108390611833565b90600052602060002090601f0160209004810192826110a557600085556110ec565b82601f106110be57805160ff19168380011785556110ec565b828001600101855582156110ec579182015b828111156110eb5782518255916020019190600101906110d0565b5b5090506110f9919061113d565b5090565b604051806080016040528060008152602001600073ffffffffffffffffffffffffffffffffffffffff168152602001606081526020016000151581525090565b5b8082111561115657600081600090555060010161113e565b5090565b600061116d61116884611705565b6116e0565b90508281526020810184848401111561118557600080fd5b6111908482856117f1565b509392505050565b6000813590506111a781611a47565b92915050565b600082601f8301126111be57600080fd5b81356111ce84826020860161115a565b91505092915050565b6000813590506111e681611a5e565b92915050565b6000602082840312156111fe57600080fd5b600061120c84828501611198565b91505092915050565b6000806040838503121561122857600080fd5b600061123685828601611198565b9250506020611247858286016111d7565b9150509250929050565b60006020828403121561126357600080fd5b600082013567ffffffffffffffff81111561127d57600080fd5b611289848285016111ad565b91505092915050565b6000602082840312156112a457600080fd5b60006112b2848285016111d7565b91505092915050565b600080604083850312156112ce57600080fd5b60006112dc858286016111d7565b925050602083013567ffffffffffffffff8111156112f957600080fd5b611305858286016111ad565b9150509250929050565b6113188161179b565b82525050565b6113278161179b565b82525050565b611336816117ad565b82525050565b611345816117ad565b82525050565b600061135682611736565b6113608185611741565b9350611370818560208601611800565b6113798161196c565b840191505092915050565b600061138f82611736565b6113998185611752565b93506113a9818560208601611800565b6113b28161196c565b840191505092915050565b60006113ca601783611752565b91506113d58261197d565b602082019050919050565b60006113ed602683611752565b91506113f8826119a6565b604082019050919050565b6000611410602083611752565b915061141b826119f5565b602082019050919050565b6000611433601983611752565b915061143e82611a1e565b602082019050919050565b600060808301600083015161146160008601826114bb565b506020830151611474602086018261130f565b506040830151848203604086015261148c828261134b565b91505060608301516114a1606086018261132d565b508091505092915050565b6114b5816117b9565b82525050565b6114c4816117e7565b82525050565b6114d3816117e7565b82525050565b60006020820190506114ee600083018461131e565b92915050565b6000606082019050611509600083018661131e565b61151660208301856114ca565b81810360408301526115288184611384565b9050949350505050565b600060a082019050611547600083018861131e565b61155460208301876114ca565b81810360408301526115668186611384565b9050818103606083015261157a8185611384565b9050818103608083015261158e8184611384565b90509695505050505050565b600060208201905081810360008301526115b48184611384565b905092915050565b600060208201905081810360008301526115d5816113bd565b9050919050565b600060208201905081810360008301526115f5816113e0565b9050919050565b6000602082019050818103600083015261161581611403565b9050919050565b6000602082019050818103600083015261163581611426565b9050919050565b600060208201905081810360008301526116568184611449565b905092915050565b600060208201905061167360008301846114ac565b92915050565b600060208201905061168e60008301846114ca565b92915050565b60006080820190506116a960008301876114ca565b6116b6602083018661131e565b81810360408301526116c88185611384565b90506116d7606083018461133c565b95945050505050565b60006116ea6116fb565b90506116f68282611865565b919050565b6000604051905090565b600067ffffffffffffffff8211156117205761171f61193d565b5b6117298261196c565b9050602081019050919050565b600081519050919050565b600082825260208201905092915050565b600082825260208201905092915050565b600061176e826117b9565b9150611779836117b9565b92508261ffff038211156117905761178f6118df565b5b828201905092915050565b60006117a6826117c7565b9050919050565b60008115159050919050565b600061ffff82169050919050565b600073ffffffffffffffffffffffffffffffffffffffff82169050919050565b6000819050919050565b82818337600083830152505050565b60005b8381101561181e578082015181840152602081019050611803565b8381111561182d576000848401525b50505050565b6000600282049050600182168061184b57607f821691505b6020821081141561185f5761185e61190e565b5b50919050565b61186e8261196c565b810181811067ffffffffffffffff8211171561188d5761188c61193d565b5b80604052505050565b60006118a1826117e7565b91507fffffffffffffffffffffffffffffffffffffffffffffffffffffffffffffffff8214156118d4576118d36118df565b5b600182019050919050565b7f4e487b7100000000000000000000000000000000000000000000000000000000600052601160045260246000fd5b7f4e487b7100000000000000000000000000000000000000000000000000000000600052602260045260246000fd5b7f4e487b7100000000000000000000000000000000000000000000000000000000600052604160045260246000fd5b6000601f19601f8301169050919050565b7f43616c6c6572206973206e6f7420746865206f776e6572000000000000000000600082015250565b7f4f776e61626c653a206e6577206f776e657220697320746865207a65726f206160008201527f6464726573730000000000000000000000000000000000000000000000000000602082015250565b7f4f776e61626c653a2063616c6c6572206973206e6f7420746865206f776e6572600082015250565b7f4e6f20737461746520746f207570646174652068657265202100000000000000600082015250565b611a508161179b565b8114611a5b57600080fd5b50565b611a67816117e7565b8114611a7257600080fd5b5056fea26469706673582212207a63da68e359b2f83d16d53bd11e462057c1b79dd9025d26e8cdd0a1b551aad964736f6c63430008040033",
  "immutableReferences": {},
  "source": "// SPDX-License-Identifier: MIT\npragma solidity 0.8.4;\n\n//imports\nimport '@openzeppelin/contracts/access/Ownable.sol';\n\n/// @title MindingPin Contract\n\ncontract MindPin is Ownable {\n\n//variables\n  uint public counter; \n  \n  struct State {\n    uint id;\n    address owner;\n    string content;\n    bool exists;\n  }\n\n  //2 mappings un pour avoir l'ensemble des states peu importe le owner et l'autre cf owner\n  mapping(address => mapping(uint => State)) public bookStates;\n  mapping(uint => State) public NumStates;\n  \n  //nombre d'entres par owner\n  mapping(address => uint16) public AddressEntries;\n\n//events\nevent MindSet(\n  address owner,\n  uint id,\n  string content\n);\n\nevent DeleteMindSet(\n  address owner,\n  uint id,\n  string content\n);\n\nevent UpdateMindSet(\n  address owner,\n  uint id,\n  string newContent,\n  string oldContent,\n  string message\n);\n\n// modifier\nmodifier isOwner(State memory entry) {\n  require(msg.sender == entry.owner, \"Caller is not the owner\");\n  _;\n}\n\nmodifier isOkToUpdate(uint _id) {\n  require(NumStates[_id].exists   , \"No state to update here !\");\n  _;\n}\n\n//fonctions\n\n    /** \n     * @dev Create a new Mindset \n     * @param _content - MindesetContent\n     * @return id - Returns mindset Id\n     */\n    function writeState(string memory _content) external returns (uint id) {\n        counter++;\n        State memory entry = State(counter, msg.sender, _content, true);\n        NumStates[counter] = entry;\n        bookStates[msg.sender][counter] = entry;\n        AddressEntries[msg.sender] = AddressEntries[msg.sender]+1;\n        emit MindSet(msg.sender, counter, _content);\n        return (counter);\n    }\n\n    /** \n     * @dev getOneState\n     * @param _id - State's id\n     * @return result - Returns state\n     */\n    function getState(uint _id) public view returns (State memory result) {\n      return NumStates[_id];\n    }\n\n     /** \n     * @dev deleteOneState\n     * @param _id - State's id\n     * @return message - Returns confirm message\n     */\n    function deleteState(uint _id) public isOwner(getState(_id)) returns (string memory message) {\n      NumStates[_id].content = \"\";\n      bookStates[msg.sender][_id].content = \"\";\n      NumStates[_id].exists = false;\n      bookStates[msg.sender][_id].exists = false;\n      string memory _message = \"State erased\";\n      emit DeleteMindSet(msg.sender, _id, _message);\n      return _message;\n    }\n\n    /** \n     * @dev updateState\n     * @param _id - State's id\n     * @param _content - State's content to update\n     * @return message - Returns confirm message\n     */\n    function updateState(uint _id, string memory _content) public isOwner(getState(_id)) isOkToUpdate(_id) returns (string memory message) {\n      string memory oldStateContent = NumStates[_id].content;\n      NumStates[_id].content =  _content;\n      bookStates[msg.sender][_id].content = _content;\n      string memory _message = \"State updated!\";\n      emit UpdateMindSet(msg.sender, _id, _content, oldStateContent, _message);\n      return _message;\n    }\n}",
  "sourcePath": "D:/work/udemy/module1/solidityClientReact/contracts/MindPin.sol",
  "compiler": {
    "name": "solc",
    "version": "0.8.4+commit.c7e474f2.Emscripten.clang"
  },
  "schemaVersion": "3.4.1",
  "updatedAt": "2021-05-18T20:37:57.270Z",
  "networkType": "ethereum",
  "devdoc": {
    "kind": "dev",
    "methods": {
      "deleteState(uint256)": {
        "details": "deleteOneState",
        "params": {
          "_id": "- State's id"
        },
        "returns": {
          "message": "- Returns confirm message"
        }
      },
      "getState(uint256)": {
        "details": "getOneState",
        "params": {
          "_id": "- State's id"
        },
        "returns": {
          "result": "- Returns state"
        }
      },
      "owner()": {
        "details": "Returns the address of the current owner."
      },
      "renounceOwnership()": {
        "details": "Leaves the contract without owner. It will not be possible to call `onlyOwner` functions anymore. Can only be called by the current owner. NOTE: Renouncing ownership will leave the contract without an owner, thereby removing any functionality that is only available to the owner."
      },
      "transferOwnership(address)": {
        "details": "Transfers ownership of the contract to a new account (`newOwner`). Can only be called by the current owner."
      },
      "updateState(uint256,string)": {
        "details": "updateState",
        "params": {
          "_content": "- State's content to update",
          "_id": "- State's id"
        },
        "returns": {
          "message": "- Returns confirm message"
        }
      },
      "writeState(string)": {
        "details": "Create a new Mindset ",
        "params": {
          "_content": "- MindesetContent"
        },
        "returns": {
          "id": "- Returns mindset Id"
        }
      }
    },
    "title": "MindingPin Contract",
    "version": 1
  },
  "userdoc": {
    "kind": "user",
    "methods": {},
    "version": 1
  }
}